:02000000462890
:0E0006008312031322088A00210882000800DA
:100014000E3083120313FD00FD0B0E2800000800B0
:10002400831203139F01C0309F042009F00070085D
:1000340083169F051F179F1783122308F000F00DE6
:100044007010F00D7010F00D701070089F041F14E4
:100054000A201F151F1D302800002C281F101E0801
:10006400F100F00183161E08F0040030F1040800CA
:1000740003208A110A128000840AA10A0319A20A21
:08008400F003031D3A280800F7
:10008C0066208316031386018312A301122080308D
:10009C00013AF200803071067202031D5728700875
:1000AC00F43C03185C28831206145E288312061095
:0400BC004A285F2847
:1000CC0020308400013083120313F0006530A1004E
:0800DC000030A2003A200800E8
:0200CA000F34F1
:02400E004A2F37
:00000001FF
